:100000000C942A000C943F000C943F000C943F0089
:100010000C943F000C943F000C943F000C943F0064
:100020000C943F000C943F000C943F000C943F0054
:100030000C943F000C943F000C943F000C943F0044
:100040000C943F000C943F000C943F000C943F0034
:100050000C943F0011241FBECFE5D8E0DEBFCDBF1A
:1000600010E0A0E6B0E0E6E2F2E002C005900D92FA
:10007000AA36B107D9F70E9441000C9411010C94E3
:1000800000008FEF8ABB87BB11BA82BB80E00E9461
:10009000BC00D0E0F12CC0E0D11167C0F11004C069
:1000A000CF5FC43609F4C0E000E010E026C08499B8
:1000B0000AC081E0D11180E0D82F03C08C2F0E94AC
:1000C000BC00849BFBCF83990AC081E0F11080E0E3
:1000D000F82E03C08C2F0E94BC00839BFBCF829B19
:1000E00004C006C080E00E94BC00829BFBCFC0E041
:1000F0008C2F0E94BC000F5F1F4F0C3281E018074D
:10010000B4F2CACF849B04C006C08C2F0E94BC00EE
:10011000849BFBCFD0E0829916C0C65FC43688F0BE
:100120008DECC89F812D1124869586958695880F24
:10013000982F990F990F890FC81B03C08C2F0E940D
:10014000BC00829BFBCF83990AC0CF5FCF3F29F4CD
:10015000C3E603C08C2F0E94BC00839BFBCF8C2F77
:100160000E94BC000F5F1F4F02C000E010E00C3285
:1001700081E018073CF290CFCF93DF93CDB7DEB785
:100180002A970FB6F894DEBF0FBECDBF9AE0E0E627
:10019000F0E0DE01119601900D929A95E1F79DEC49
:1001A000899F912D1124E92FE695E695E695EE0FAE
:1001B0002E2F220F220FE20F8E1BE82FF0E09695D4
:1001C0009695969585B3806885BBA1E0B0E0AC0FAD
:1001D000BD1FA90FB11D8C91880F8BBB85B38F7B81
:1001E00085BB82E08A95F1F700C085B3806485BB4A
:1001F00081E090E08C0F9D1FE80FF91F8081880F30
:100200008BBB85B38F7785BB92E09A95F1F700C0E1
:100210002A960FB6F894DEBF0FBECDBFDF91CF9107
:060220000895F894FFCFE1
:0A0226003F065B4F666D7D077F67A2
:00000001FF
