:100000000C942A000C944E050C9477050C94A005D2
:100010000C9447000C9447000C949A060C94EB0047
:100020000C9471060C9448060C9447000C94C90576
:100030000C9447000C94EC060C9447000C94C306F7
:100040000C9447000C9447000C9447000C94470014
:100050000C94470011241FBECFE5D8E0DEBFCDBF12
:1000600010E0A0E6B0E0E0E0FFE002C005900D92F5
:10007000A839B107D9F720E0A8E9B0E001C01D9286
:10008000A03EB207E1F70E94B0030C947E070C94E7
:100090000000CF93DF93DC01FB0111962D913C9181
:1000A0001297E9018A819B8193838283358324831C
:1000B0008A819B81EC017D836C83E9017B836A8368
:1000C00012967C936E931197B187A0878C918F5F66
:1000D0008C93DF91CF910895CF93DF93FC01A281A0
:1000E000B3818481958115969C938E931497C481D6
:1000F000D581BB83AA83A085B18511968D919C91F2
:100100001297E817F90721F41296DC93CE93119712
:10011000118610868C9181508C93DF91CF91089538
:100120000F920FB6F8940F921F9211242F923F92C4
:100130004F925F926F927F928F929F92AF92BF92F7
:10014000CF92DF92EF92FF920F931F932F933F93E3
:100150004F935F936F937F938F939F93AF93BF93CF
:10016000CF93DF93EF93FF93A091C700B091C800A6
:100170000DB60D920EB60D920E94EE000E948D01FA
:10018000A091C700B091C800CD91CDBFDD91DEBF79
:10019000FF91EF91DF91CF91BF91AF919F918F919F
:1001A0007F916F915F914F913F912F911F910F918F
:1001B000FF90EF90DF90CF90BF90AF909F908F9087
:1001C0007F906F905F904F903F902F901F900F9077
:1001D0000FBE0F9008950E9490001895FF920F9304
:1001E0001F93CF93DF9380919B0081118BC08091EF
:1001F0009D0090919E00019690939E0080939D009B
:1002000080919D0090919E00892B79F58091A100AD
:100210009091A20020919F003091A0003093A20005
:100220002093A1009093A00080939F00809198005C
:100230008F5F80939800E091A100F091A2008081EF
:10024000811103C08FEF9FEF0CC0E091A100F091EE
:10025000A2000580F681E02D0680F781E02D8281E5
:100260009381909361008093600020919D00309174
:100270009E0080916000909161002817390708F472
:1002800046C089E0F82EE091A100F091A2008081A3
:10029000811103C08FEF9FEF12C0E091A100F09198
:1002A000A2000580F681E02DC681D7818A819B81DD
:1002B00020919D0030919E002817390728F49093D3
:1002C00061008093600023C08E010E5F1F4FC80144
:1002D0000E946C008C899D89892B21F0CE010C969F
:1002E0000E946C008E8990919C00981710F4809366
:1002F0009C00F89EC0011124B8018D559F4F0E94AB
:100300004900C1CF80919A008F5F80939A00DF915E
:10031000CF911F910F91FF90089580919B008111C3
:1003200042C099E0E0919C009E9FF0011124ED55A0
:10033000FF4F8081811106C080919C008150809385
:100340009C00F0CF80919C0090E049E0489F900194
:10035000499F300D1124F901ED55FF4FA181B28164
:1003600012960D90BC91A02DB283A1832A553F4FC8
:10037000A217B30731F412962D913C911397328353
:10038000218329E0289FF001299FF00D1124ED55CC
:10039000FF4F0180F281E02D868197819093C80004
:1003A0008093C700089581E0809399000895CF93CA
:1003B000C82F60E081E00E94EF036C2F661F662764
:1003C000661F86E00E94EF03C6FB662760F985E0A2
:1003D0000E94EF03C5FB662760F984E00E94EF03EB
:1003E000C4FB662760F983E00E94EF0361E082E0CE
:1003F0000E94EF038FEC97E00197F1F700C0000037
:1004000060E082E00E94EF038FEC97E00197F1F744
:1004100000C00000C3FB662760F986E00E94EF037E
:10042000C2FB662760F985E00E94EF03C1FB6627E7
:1004300060F984E00E94EF036C2F617083E00E94FA
:10044000EF0361E082E00E94EF038FEC97E00197F9
:10045000F1F700C0000060E082E00E94EF038FEC43
:1004600097E00197F1F700C00000CF910895CF9376
:10047000C82F61E081E00E94EF036C2F661F6627A2
:10048000661F86E00E94EF03C6FB662760F985E0E1
:100490000E94EF03C5FB662760F984E00E94EF032A
:1004A000C4FB662760F983E00E94EF0361E082E00D
:1004B0000E94EF038FEC97E00197F1F700C0000076
:1004C00060E082E00E94EF038FEC97E00197F1F784
:1004D00000C00000C3FB662760F986E00E94EF03BE
:1004E000C2FB662760F985E00E94EF03C1FB662727
:1004F00060F984E00E94EF036C2F617083E00E943A
:10050000EF0361E082E00E94EF038FEC97E0019738
:10051000F1F700C0000060E082E00E94EF038FEC82
:1005200097E00197F1F700C00000CF9108952FE701
:1005300088E391E0215080409040E1F700C0000046
:1005400082E00E94D70188E20E94D7018CE00E94DD
:10055000D70181E00E94D7018FEC97E00197F1F776
:1005600000C0000086E00C94D7014F925F926F921A
:100570007F92AF92BF92CF92DF92EF92FF920F9352
:100580001F93CF93DF93CDB7DEB728970FB6F894BC
:10059000DEBF0FBECDBF6B017C0197FD36C0672B60
:1005A000682B692B19F480E30E94370200E010E009
:1005B0009AE0492E512C612C712CC114D104E10414
:1005C000F104A1F0AA24A394B12CAC0EBD1EA10E7F
:1005D000B11CC701B601A30192010E945F07605DD3
:1005E000F501608369017A011F5FE7CF013019F4DB
:1005F0008DE20E943702112391F0FE01E10FF11DFF
:1006000080810E9437021150F6CFF094E094D0948C
:10061000C094C11CD11CE11CF11C01E0C8CF28967C
:100620000FB6F894DEBF0FBECDBFDF91CF911F9103
:100630000F91FF90EF90DF90CF90BF90AF907F90A1
:100640006F905F904F900895811103C0862F80684E
:1006500004C0813021F4862F806C0C94D70108955A
:100660000F931F93CF938C01C0E0F801EC0FF11DA5
:100670008081882321F00E943702CF5FF6CFCF918F
:100680001F910F9108958091CD0081110BC086B507
:1006900097B59093CC008093CB0080E00E94320607
:1006A00081E00BC08091CD00813049F486B597B5CB
:1006B0009093CA008093C90082E08093CD00089592
:1006C00083E493E00E9443060C942E06CF93DF93BD
:1006D000EB011DBC1CBC81E00E94320661E080E0A1
:1006E0000E94EF0323E02A95F1F7000060E080E02C
:1006F0000E94EF0381E291EAA7E0B0E02091CD00F3
:10070000223030F40197A109B10911F00000F6CFB1
:100710008091CD008230B1F48091C9009091CA00DF
:100720002091CB003091CC00821B930B6AE370E0E8
:100730000E942907CB01770FAA0BBB0B88839983F3
:10074000AA83BB831092CD008FE39DE023E081500C
:1007500090402040E1F700C00000DF91CF91089564
:10076000CF93DF9300D000D0CDB7DEB70E947004E6
:100770000E94970262E080E00E94F2050E946003FE
:10078000789419821A821B821C8261E080E00E94A8
:10079000240382E690E00E943003BE016F5F7F4F2A
:1007A00080E00E94660361E081E00E94240387E606
:1007B00090E00E94300369817A818B819C810E9444
:1007C000B50282E790E00E9430032FEF89E698E1BE
:1007D000215080409040E1F700C00000DECF982F0C
:1007E000977086958695869561113CC0813099F009
:1007F00028F08230E9F0833041F108954BB321E0D5
:1008000030E0B90102C0660F771F9A95E2F7CB017D
:10081000809584233CC048B321E030E0B90102C098
:10082000660F771F9A95E2F7CB01809584233CC031
:1008300045B321E030E0B90102C0660F771F9A95F9
:10084000E2F7CB01809584233CC042B321E030E045
:10085000B90102C0660F771F9A95E2F7CB01809528
:1008600084233CC06130D9F5813099F028F0823082
:10087000E9F0833041F108954BB321E030E0B90154
:1008800002C0660F771F9A95E2F7CB01842B8BBBD2
:10089000089548B321E030E0B90102C0660F771F28
:1008A0009A95E2F7CB01842B88BB089545B321E0EC
:1008B00030E0B90102C0660F771F9A95E2F7CB01CD
:1008C000842B85BB089542B321E030E0B90102C01A
:1008D000660F771F9A95E2F7CB01842B82BB0895B0
:1008E000E7E7F0E040E081E090E05191242F2770AD
:1008F000342F369536953695513009F486C020F060
:10090000523009F43FC0C5C0323001F1333061F1DB
:10091000313071F05AB3BC0102C0660F771F2A95BF
:10092000E2F79B01352F322B3ABB3BB3209580C0B9
:1009300057B3BC0102C0660F771F2A95E2F79B01EF
:10094000352F322B37BB38B3209582C054B3BC014E
:1009500002C0660F771F2A95E2F79B01352F322BD5
:1009600034BB35B3209584C051B3BC0102C0660FBF
:10097000771F2A95E2F79B01352F322B31BB32B31B
:10098000209585C0323011F1333081F1313079F06A
:100990005AB3BC0102C0660F771F2A95E2F79B018C
:1009A000362F309535233ABB3BB3232B42C057B388
:1009B000BC0102C0660F771F2A95E2F79B01362F14
:1009C0003095352337BB38B3232B43C054B3BC0118
:1009D00002C0660F771F2A95E2F79B01362F3095EC
:1009E000352334BB35B3232B25BB53C051B3BC01D6
:1009F00002C0660F771F2A95E2F79B01362F3095CC
:100A0000352331BB32B3232B43C0323021F1333095
:100A100089F1313081F05AB3BC0102C0660F771FF3
:100A20002A95E2F79B012095352F32233ABB3BB341
:100A300023232BBB2EC057B3BC0102C0660F771F08
:100A40002A95E2F79B012095352F322337BB38B327
:100A5000232328BB1EC054B3BC0102C0660F771FFE
:100A60002A95E2F79B012095352F322334BB35B30D
:100A70002323BACF51B3BC0102C0660F771F2A955A
:100A8000E2F79B012095352F322331BB32B323236C
:100A900022BB4F5F403209F028CF08951F920F927A
:100AA0000FB60F9211242F933F934F935F936F9341
:100AB0007F938F939F93AF93BF93EF93FF93E091B7
:100AC000D200F091D300309709F00995FF91EF9192
:100AD000BF91AF919F918F917F916F915F914F9156
:100AE0003F912F910F900FBE0F901F9018951F925E
:100AF0000F920FB60F9211242F933F934F935F9352
:100B00006F937F938F939F93AF93BF93EF93FF93D5
:100B1000E091D000F091D100309709F00995FF9154
:100B2000EF91BF91AF919F918F917F916F915F9165
:100B30004F913F912F910F900FBE0F901F901895DE
:100B40001F920F920FB60F9211242F933F934F9342
:100B50005F936F937F938F939F93AF93BF93EF9325
:100B6000FF93E091CE00F091CF00309709F0099506
:100B7000FF91EF91BF91AF919F918F917F916F9175
:100B80005F914F913F912F910F900FBE0F901F904B
:100B900018951F920F920FB60F9211242F933F9327
:100BA0004F935F936F937F938F939F93AF93BF9375
:100BB000EF93FF93E091DA00F091DB00309709F0BA
:100BC0000995FF91EF91BF91AF919F918F917F9187
:100BD0006F915F914F913F912F910F900FBE0F90AA
:100BE0001F9018958230D9F050F4882379F0813025
:100BF00071F58FB58E7F8FBD8FB58D7F21C083300E
:100C0000D1F0843021F58FB5816017C08FB58E7F0C
:100C10008FBD8FB58D7F8FBD8EB5877F08C08FB597
:100C20008E7F8FBD8FB58D7F8FBD8EB588608EBD59
:100C30008EB58F7E0BC08FB58E7F8FBD8FB58260D6
:100C40008FBD8EB588608EBD8EB580618EBD8EB530
:100C5000887F8EBD8EB5682B6EBD089589B7806282
:100C600089BF08959EB59F7B9EBD2EB530E4839FBE
:100C7000C0011124822B8EBD8EB58F778EBD8EB5AF
:100C800080688EBD08959093D5008093D400089518
:100C90001F920F920FB60F9211242F933F934F93F1
:100CA0005F936F937F938F939F93AF93BF93EF93D4
:100CB000FF93E091D800F091D900309709F00995A1
:100CC000FF91EF91BF91AF919F918F917F916F9124
:100CD0005F914F913F912F910F900FBE0F901F90FA
:100CE00018951F920F920FB60F9211242F933F93D6
:100CF0004F935F936F937F938F939F93AF93BF9324
:100D0000EF93FF93E091D600F091D700309709F070
:100D10000995FF91EF91BF91AF919F918F917F9135
:100D20006F915F914F913F912F910F900FBE0F9058
:100D30001F9018951F920F920FB60F9211242F93A8
:100D40003F934F935F936F937F938F939F93AF9353
:100D5000BF93EF93FF93E091D400F091D5003097CB
:100D600009F00995FF91EF91BF91AF919F918F91FC
:100D70007F916F915F914F913F912F910F900FBE97
:100D80000F901F9018951F920F920FB60F9211247B
:100D90002F933F934F935F936F937F938F939F9383
:100DA000AF93BF93EF93FF93E091DC00F091DD00F0
:100DB000309709F00995FF91EF91BF91AF919F9105
:100DC0008F917F916F915F914F913F912F910F90F4
:100DD0000FBE0F901F9018951F920F920FB60F9293
:100DE00011242F933F934F935F936F937F938F9330
:100DF0009F93AF93BF93EF93FF93E091DE00F09149
:100E0000DF00309709F00995FF91EF91BF91AF9105
:100E10009F918F917F916F915F914F913F912F9112
:100E20000F900FBE0F901F901895AA1BBB1B51E18E
:100E300007C0AA1FBB1FA617B70710F0A61BB70B4A
:100E4000881F991F5A95A9F780959095BC01CD01EF
:100E5000089597FB072E16F4009407D077FD09D06C
:100E60000E94150707FC05D03EF4909581959F4F91
:100E70000895709561957F4F0895A1E21A2EAA1BDF
:100E8000BB1BFD010DC0AA1FBB1FEE1FFF1FA2173A
:100E9000B307E407F50720F0A21BB30BE40BF50B37
:100EA000661F771F881F991F1A9469F760957095C0
:100EB000809590959B01AC01BD01CF010895052E51
:100EC00097FB1EF400940E94760757FD07D00E94FE
:100ED0003D0707FC03D04EF40C94760750954095DF
:100EE000309521953F4F4F4F5F4F089590958095D6
:100EF000709561957F4F8F4F9F4F0895F894FFCF66
:100F0000FFFF54454D500064697374616E63653A28
:100F10002000202020200000000000000000000031
:100F200000000000000100000002020200000000BA
:080F30000002020000010000B4
:00000001FF
