S0100000414C4C696E4F6E652E7372656342
S11300000C942A000C94A5060C94CE060C94F706C6
S11300100C9447000C9447000C949B070C945502D5
S11300200C9472070C9449070C9447000C94200715
S11300300C9447000C94ED070C9447000C94C407EF
S11300400C9447000C9447000C9447000C94470010
S11300500C94470011241FBECFE5D8E0DEBFCDBF0E
S113006010E0A0E6B0E0ECE5F0E102C005900D92EE
S1130070A838B107D9F724E0A8E8B0E001C01D9280
S1130080A73EB207E1F70E947A050C942C080C9461
S113009000000F931F93CF93DF938C010E94BE0344
S11300A0C0918800D0918900CE01800F911F883EB5
S11300B023E0920750F4C817D90738F4C657DF4F26
S11300C0909389008093880002C0C0E0D0E00E9431
S11300D06304CE01DF91CF911F910F91089508958C
S11300E0FC010396928381832FEF3FEF34832383B4
S11300F0968385839087878310820895FC011186F7
S113010010860895CF93DF93DC01FB0111962D91A6
S11301103C911297E9018A819B8193838283358381
S113012024838A819B81EC017D836C83E9017B8339
S11301306A8312967C936E931197B187A0878C91F2
S11301408F5F8C93DF91CF910895CF93DF93AC01B0
S1130150DB018D919C9111978F3F2FEF920721F432
S1130160EA01EF81F8850EC0FA01339622813381CA
S1130170E901288139818217930720F00280F381F5
S1130180E02DF4CF8281938113969C938E931297E2
S1130190EC01BD83AC831596FC93EE931497B38363
S11301A0A28319965C934E931897FA0180818F5F0E
S11301B08083DF91CF910895CF93DF93FC01A281D7
S11301C0B3818481958115969C938E931497C481F1
S11301D0D581BB83AA83A085B18511968D919C910D
S11301E01297E817F90721F41296DC93CE9311972E
S11301F0118610868C9181508C93DF91CF91089554
S113020031E1FC013083319722E220833197A3E36B
S1130210A08331976083319770833197108231972F
S113022060E8608331971082319762E06083319790
S113023063E06083319764E06083319765E06083B5
S1130240319766E06083319767E06083319768E0B7
S11302506083319769E06083319760E1608331970F
S11302603083319732E13083319733E130833197F2
S113027034E13083319735E13083319736E130838F
S1130280319737E13083319738E13083319739E161
S11302903083319730E23083319731E230833197C4
S11302A02083319723E22083319740833197508311
S11302B0319726E22083319727E22083319728E281
S11302C02083319729E22083319720E320833197DB
S11302D021E32083869708951BBC8CE78ABD8BE0BD
S11302E08EBD89B7806189BFA091D304B091D40435
S11302F0CD91CDBFDD91DEBFFF91EF91DF91CF9125
S1130300BF91AF919F918F917F916F915F914F9129
S11303103F912F911F910F91FF90EF90DF90CF901D
S1130320BF90AF909F908F907F906F905F904F9011
S11303303F902F901F900F900FBE0F90089581E073
S113034008950F920FB6F8940F921F9211242F92D2
S11303503F924F925F926F927F928F929F92AF9251
S1130360BF92CF92DF92EF92FF920F931F932F933E
S11303703F934F935F936F937F938F939F93AF9329
S1130380BF93CF93DF93EF93FF93A091D304B091E6
S1130390D4040DB60D920EB60D920E942005A091C4
S11303A0D304B091D404CD91CDBFDD91DEBFFF91D4
S11303B0EF91DF91CF91BF91AF919F918F917F91F9
S11303C06F915F914F913F912F911F910F91FF90EA
S11303D0EF90DF90CF90BF90AF909F908F907F90E1
S11303E06F905F904F903F902F901F900F900FBE93
S11303F00F9008950F920FB6F8940F921F92112444
S11304002F923F924F925F926F927F928F929F9220
S1130410AF92BF92CF92DF92EF92FF920F931F930E
S11304202F933F934F935F936F937F938F939F93F8
S1130430AF93BF93CF93DF93EF93FF93A091D30434
S1130440B091D4040DB60D920EB60D920E94C40361
S11304500E942005A091D304B091D404CD91CDBFC6
S1130460DD91DEBFFF91EF91DF91CF91BF91AF910D
S11304709F918F917F916F915F914F913F912F91B8
S11304801F910F91FF90EF90DF90CF90BF90AF90AE
S11304909F908F907F906F905F904F903F902F90A0
S11304A01F900F900FBE0F9008950E94FA011895A7
S11304B0CF93DF93E091D304F091D40493838283A8
S11304C020917A0430917B048217930770F4609131
S11304D0D3047091D4048091990490919A046E5F2E
S11304E07F4FDF91CF910C94A500EC016091D30470
S11304F07091D40480919B0490919C046E5F7F4F13
S11305000E94A5008091600090916100C817D907EE
S113051020F4D0936100C0936000DF91CF910895DF
S11305204F925F926F927F928F929F92AF92BF92FF
S1130530CF92DF92EF92FF920F931F93CF93DF93AB
S11305402C013B015A01490181E290E00E944900DB
S1130550EC01892B09F4CEC0C114D10421F4C501E6
S11305600E94490001C0C601988F8F8B009721F427
S1130570CE010E946F00BEC0A50165EA70E00E9432
S1130580160821E0A21AB1088F89988DA80EB91E09
S113059048E050E0B301CE0149960E941D0818A21C
S11305A0102F043008F013E01E8B6E0182E0C80E99
S11305B0D11CC6010E947E00CE010C960E947E00D2
S11305C0D987C88784E090E0811B91099D878C8737
S11305D0DB8BCA8BA401B201C5010E94000199837F
S11305E08883E114F10419F0F701D183C0830FB6B5
S11305F0F8940F9280917C048F5F80937C048091A7
S1130600D3049091D404892BD1F5D093D404C0930E
S1130610D30480917C04813009F040C08FEA94E0D7
S11306200E94700088EB94E00E94700081EC94E0DA
S11306300E9470008AEC94E00E94700086EA94E0C4
S11306400E9470008DE994E00E94700080E994E0BB
S11306500E94700087E894E00E9470008DE794E0A7
S11306600E94700086EA94E090939C0480939B041B
S11306708DE994E090939A04809399040FC080913B
S1130680770481110BC0E091D304F091D4048689DE
S1130690081720F0D093D404C093D3048E8990918A
S11306A07904981710F480937904909172049F5FF1
S11306B09093720490917804981710F480937804BE
S11306C0F9E08F9FC0011124B60181559B4F0E9410
S11306D082000F900FBE80917704882349F0E09147
S11306E0D304F091D4048689801710F40E94A101E8
S11306F081E001C08FEFDF91CF911F910F91FF90A7
S1130700EF90DF90CF90BF90AF909F908F907F90AD
S11307106F905F904F900895AF92BF92CF92DF9207
S1130720EF92FF920F93A12CB12CC12CD12CE12C70
S1130730F12C00E020E030E04AEF50E062E670E0A7
S113074083EF94E00E949002813081F4F8948093C6
S1130750770410927B0410927A040F91FF90EF902B
S1130760DF90CF90BF90AF900C946C010F91FF90ED
S1130770EF90DF90CF90BF90AF9008958091760472
S11307808F5F809376040895FF920F931F93CF9306
S1130790DF938091760481118BC080917A049091CB
S11307A07B04019690937B0480937A0480917A046D
S11307B090917B04892B79F580919B0490919C0402
S11307C02091990430919A0430939C0420939B04C3
S11307D090939A0480939904809173048F5F80931B
S11307E07304E0919B04F0919C048081811103C007
S11307F08FEF9FEF0CC0E0919B04F0919C04058067
S1130800F681E02D0680F781E02D8281938190931B
S113081061008093600020917A0430917B04809180
S11308206000909161002817390708F446C089E0F8
S1130830F82EE0919B04F0919C048081811103C007
S11308408FEF9FEF12C0E0919B04F0919C04058010
S1130850F681E02DC681D7818A819B8120917A041B
S113086030917B042817390728F490936100809312
S1130870600023C08E010E5F1F4FC8010E94DC0080
S11308808C899D89892B21F0CE010C960E94DC0075
S11308908E8990917804981710F480937804F89EC8
S11308A0C0011124B80181559B4F0E948200C1CF21
S11308B0809175048F5F80937504DF91CF911F91B0
S11308C00F91FF900895EF92FF920F931F93CF9390
S11308D0DF930FB6F8940F92809176048150809341
S11308E0760480917604882311F080E052C08091D0
S11308F07C048823D1F310E009E0809190048823DC
S113090051F1E0919504F0919604C681D781CE010E
S11309100C960E94DC007E0182E0E80EF11CC70107
S11309200E94DC008E8990917804981710F48093CB
S11309307804089FC0011124B70181559B4F0E9480
S11309408200E091D304F091D4049E89868998179B
S1130950A0F211E0D2CF80917504882361F08091D8
S11309607504882351F00E94C4038091750481505A
S113097080937504F4CF113031F4109274040E9402
S1130980A10181E006C080917404813009F0ADCFEB
S1130990F4CF0F900FBEDF91CF911F910F91FF9075
S11309A0EF900895CF93DF93EC01892B19F40E9403
S11309B0A10116C00E94BE0380917A0490917B0429
S11309C0C80FD91F8091D3049091D40402960E9439
S11309D0DC00CE010E9458020E946304882339F38C
S11309E0DF91CF910895809186048823E1F30E94DA
S11309F0BE03C09187040E946304CC23A1F30FB605
S1130A00F8940F92E0918C04F0918D04C681D78103
S1130A10CE0102960E94DC0080917C048150809378
S1130A207C04809186048150809386040F900FBECD
S1130A308F89988D0E946F00CE010E946F00D3CFE2
S1130A4080917604811142C099E0E09178049E9FE0
S1130A50F0011124E155FB4F8081811106C0809182
S1130A607804815080937804F0CF8091780490E0EA
S1130A7049E0489F9001499F300D1124F901E15547
S1130A80FB4FA181B28112960D90BC91A02DB2832F
S1130A90A1832E543B4FA217B30731F412962D9124
S1130AA03C9113973283218329E0289FF001299FE9
S1130AB0F00D1124E155FB4F0180F281E02D868178
S1130AC097819093D4048093D304089581E0809314
S1130AD07404089580E00E949C0588EE93E00E94CF
S1130AE0D204F8CF81E00E949C0580ED97E00E943B
S1130AF0D204F8CF0E94C7057894A12CB12CC12C44
S1130B00D12CE12CF12C01E020E030E046E950E06A
S1130B1060E070E08AE695E00E94900202E020E046
S1130B2030E046E950E060E070E082E795E00E9442
S1130B3090020E948C03FFCF282F277086958695FC
S1130B408695813031F028F0823069F08330A9F045
S1130B5008953BB381E090E001C0880F2A95EAF73D
S1130B6083278BBB089535B381E090E001C0880FE3
S1130B702A95EAF7832785BB089532B381E090E094
S1130B8001C0880F2A95EAF7832782BB0895E7E618
S1130B90F0E040E081E090E05191242F2770342F61
S1130BA0369536953695513009F486C020F052308A
S1130BB009F43FC0C5C0323001F1333061F1313046
S1130BC071F05AB3BC0102C0660F771F2A95E2F791
S1130BD09B01352F322B3ABB3BB3209580C057B3D2
S1130BE0BC0102C0660F771F2A95E2F79B01352FDF
S1130BF0322B37BB38B3209582C054B3BC0102C03A
S1130C00660F771F2A95E2F79B01352F322B34BBF1
S1130C1035B3209584C051B3BC0102C0660F771F61
S1130C202A95E2F79B01352F322B31BB32B3209545
S1130C3085C0323011F1333081F1313079F05AB35B
S1130C40BC0102C0660F771F2A95E2F79B01362F7D
S1130C50309535233ABB3BB3232B42C057B3BC0179
S1130C6002C0660F771F2A95E2F79B01362F309555
S1130C70352337BB38B3232B43C054B3BC0102C064
S1130C80660F771F2A95E2F79B01362F309535239F
S1130C9034BB35B3232B25BB53C051B3BC0102C0B5
S1130CA0660F771F2A95E2F79B01362F309535237F
S1130CB031BB32B3232B43C0323021F1333089F1BD
S1130CC0313081F05AB3BC0102C0660F771F2A95F8
S1130CD0E2F79B012095352F32233ABB3BB3232304
S1130CE02BBB2EC057B3BC0102C0660F771F2A95D9
S1130CF0E2F79B012095352F322337BB38B32323EA
S1130D0028BB1EC054B3BC0102C0660F771F2A95CE
S1130D10E2F79B012095352F322334BB35B32323CF
S1130D20BACF51B3BC0102C0660F771F2A95E2F710
S1130D309B012095352F322331BB32B3232322BBB1
S1130D404F5F403209F028CF08951F920F920FB6DB
S1130D500F9211242F933F934F935F936F937F933D
S1130D608F939F93AF93BF93EF93FF93E091D90435
S1130D70F091DA04309709F00995FF91EF91BF9152
S1130D80AF919F918F917F916F915F914F913F911F
S1130D902F910F900FBE0F901F9018951F920F92D6
S1130DA00FB60F9211242F933F934F935F936F933A
S1130DB07F938F939F93AF93BF93EF93FF93E091B0
S1130DC0D704F091D804309709F00995FF91EF9179
S1130DD0BF91AF919F918F917F916F915F914F914F
S1130DE03F912F910F900FBE0F901F9018951F9257
S1130DF00F920FB60F9211242F933F934F935F934B
S1130E006F937F938F939F93AF93BF93EF93FF93CE
S1130E10E091D504F091D604309709F00995FF913B
S1130E20EF91BF91AF919F918F917F916F915F915E
S1130E304F913F912F910F900FBE0F901F901895D7
S1130E401F920F920FB60F9211242F933F934F933B
S1130E505F936F937F938F939F93AF93BF93EF931E
S1130E60FF93E091E104F091E204309709F00995D1
S1130E70FF91EF91BF91AF919F918F917F916F916E
S1130E805F914F913F912F910F900FBE0F901F9044
S1130E9018951F920F920FB60F9211242F933F9320
S1130EA04F935F936F937F938F939F93AF93BF936E
S1130EB0EF93FF93E091DF04F091E004309709F0A1
S1130EC00995FF91EF91BF91AF919F918F917F9180
S1130ED06F915F914F913F912F910F900FBE0F90A3
S1130EE01F9018951F920F920FB60F9211242F93F3
S1130EF03F934F935F936F937F938F939F93AF939E
S1130F00BF93EF93FF93E091DD04F091DE043097FB
S1130F1009F00995FF91EF91BF91AF919F918F9146
S1130F207F916F915F914F913F912F910F900FBEE1
S1130F300F901F9018951F920F920FB60F921124C5
S1130F402F933F934F935F936F937F938F939F93CD
S1130F50AF93BF93EF93FF93E091DB04F091DC0434
S1130F60309709F00995FF91EF91BF91AF919F914F
S1130F708F917F916F915F914F913F912F910F903E
S1130F800FBE0F901F9018951F920F920FB60F92DD
S1130F9011242F933F934F935F936F937F938F937A
S1130FA09F93AF93BF93EF93FF93E091E304F0918A
S1130FB0E404309709F00995FF91EF91BF91AF9147
S1130FC09F918F917F916F915F914F913F912F915D
S1130FD00F900FBE0F901F9018951F920F920FB68F
S1130FE00F9211242F933F934F935F936F937F93AB
S1130FF08F939F93AF93BF93EF93FF93E091E50497
S1131000F091E604309709F00995FF91EF91BF91B3
S1131010AF919F918F917F916F915F914F913F918C
S11310202F910F900FBE0F901F901895DC0101C0F7
S11310306D9341505040E0F70895FB01DC014150AD
S1131040504048F001900D920020C9F701C01D9254
S10F105041505040E0F70895F894FFCFA1
S113105CFFFF49444C450001000000000000000063
S113106C0000000000010000000202020000000069
S10B107C000202000000000064
S9030000FC
